:040000008031B5286E
:100008007E1480310B1D09280A2825282000150890
:10001800163E95007D080319122813281C289701FD
:1000280096010E140330890B1728000020000E10CB
:100038007D08031920282228013023280030FD00DC
:100048000B110B1C282829287928F801F901270009
:100058001608F400780A3128F436890B3028741809
:100068003628372840287835A03E86008701403F4B
:10007800F600413FF7004B2820001608293EF400FF
:10008800FE30173DF5007408F6007508F70078355E
:10009800A03E860087017608C03F7708C13F003040
:1000A800F400780A5828F435890B57280130F500F0
:1000B800780A5F28F535890B5E287508FF3A27000E
:1000C8001605740496000130F8070030F93D7908E8
:1000D800803AF40080307402031D742808307802D6
:1000E800031C772878282B280B102000911E7D28C8
:1000F8007E2886283230F000203095318B258031DB
:100108002100C4002000911C8A288B28B3280130C4
:100118002100BC070030BD3D0030BE3D0030BF3D72
:100128007C08031998289928B12820008E140130DA
:10013800EA070030EB3D6B08803AF4008030740227
:10014800031DA82828306A02031CAB28AC28B12854
:1001580020008E10FC01EA01EB01200091107E10B6
:1001680009008031B7288731FD278031FD00FA0169
:10017800FB01FC01EA01EB01EC01A0308400003036
:10018800850025308731F727803120308400013001
:10019800850032308731F72780317E10200080318A
:1001A800D5286A30210099008C01FF308D008E011E
:1001B8008F0123008C018D018E018F0120008C019D
:1001C8008D018E018F01E8308B00223021009100D3
:1001D800FF3027009500C63021009500013020002F
:1001E8009800E13099003C309C007D309B00003045
:1001F800BE000030BD002530BC008030BB00BF0110
:10020800BF0A96318226803100302000A000983045
:10021800A1001830A20094313A2480319431D624B8
:100228008031C0302000E0002030E100C430883147
:100238001620803141302000A3002030A200003079
:10024800A1000030A000210043082000A7002100E1
:1002580042082000A600210041082000A500210036
:1002680040082000A4009631E5268031031C3D2972
:100278003E29E22921002008183E2000A800FC3071
:100288002100213D2000A9009231FF228031210068
:10029800C500C60145082000AA0021004608200024
:1002A800AB00210023082000A9002100220820001B
:1002B800A8009231FF2280312100C700C8014708F9
:1002C8002000AC00210048082000AD009231E8224F
:1002D80080312100C900CA01CB01CC014C082000A3
:1002E800BE0021004B082000BD0021004A08200064
:1002F800BC00210049082000BB000030C2000030CB
:10030800C1000030C0003230BF000030C6000030ED
:10031800C5000030C400C830C3000030CA00003037
:10032800C9000030C8002830C7000030CE000030B7
:10033800CD000530CC00DC30CB0096312026803152
:1003480020003E082100D80020003D082100D700E9
:1003580020003C082100D60020003B082100D500E1
:1003680038083C02C50039083D3BC6003A083E3B08
:10037800C7003B083F3BC80058084802031DCE2968
:1003880057084702031DCE2956084602031DCE29E9
:1003980055084502031CD129D229DC29FC01FC0A95
:1003A8003F08BB003E08BA003D08B9003C08B80049
:1003B800D81FDF29E029E22920008E1421004308F4
:1003C8002000A300210042082000A20021004108CB
:1003D8002000A100210040082000A0004230A70012
:1003E8004830A6000030A5000030A4009631E5266C
:1003F8008031031C002A012A322A21002508200006
:10040800A900210024082000A8009231FF22803191
:100418002100C500B03045020318132A142A172AF0
:1004280020000C17192A20000C132100270820008F
:10043800A900210026082000A8009231FF2280315F
:100448002100C500B030450203182B2A2C2A2F2A78
:1004580020008C17352A20008C13352A20008C1395
:100468000C134230A3004830A2000030A100003035
:10047800A000210043082000A70021004208200016
:10048800A600210041082000A50021004008200006
:10049800A4009631E5268031031C532A542A5D2B8B
:1004A80000302100D4000030D3000030D2000030EA
:1004B800D10029082000A900210028082000A80050
:1004C8009231FF2280312100C500C601C701C80151
:1004D80048082000BE00210047082000BD00210078
:1004E80046082000BC00210045082000BB00003061
:1004F800C2000030C1000030C0003230BF00003000
:10050800C6000030C5000030C4009630C30000307B
:10051800CA000030C9000030C8000030C7000030F1
:10052800CE000030CD000030CC000230CB00963138
:100538002026803120003E082100D00020003D0800
:100548002100CF0020003C082100CE0020003B08FD
:100558002100CD002D082000A90021002C08200032
:10056800A8009231FF2280312100C500C601C701D1
:10057800C80148082000BE00210047082000BD002F
:10058800210046082000BC00210045082000BB00CF
:100598000030C2000030C1000030C0003230BF005F
:1005A8000030C6000030C5000030C4009630C300DB
:1005B8000030CA000030C9000030C8000030C70051
:1005C8000030CE000030CD000030CC000230CB002F
:1005D80096312026803120003E082100D4002000DA
:1005E8003D082100D30020003C082100D200200053
:1005F8003B082100D100142B20008C118C160C1202
:10060800422B20008C158C160C12422B20008C15C6
:100618008C120C12422B20008C158C160C16422BB7
:100628005008003A0319292B0F2B4E08003A0319DA
:100638001E2B0F2B4D08003A0319002B013A031902
:10064800052B033A03190A2B0F2B4F08003A0319FD
:10065800192B0F2B20000C100C158C1015292000BD
:100668000C140C158C10152920000C140C118C106E
:10067800152920000C140C158C1415292100540878
:10068800003A0319582B3D2B5208003A03194D2BF9
:100698003D2B5108003A03192E2B013A0319332B2D
:1006A800033A0319382B3D2B5308003A0319482BFA
:1006B8003D2B20000C140C158C148C158C160C1664
:1006C80015298031B52820002C088039B6002C3532
:1006D800BC00AB1F702B712B722B3C143C08031908
:1006E800762B772B862B3C0A031D7B2B7C2B842BAC
:1006F8000030AC000030AB000030AA000030A90088
:10070800AB178E2B0030AC000030AB000030AA00D5
:100718000030A90030088039B1003108B6063035FC
:10072800BB00AF1F982B992B9A2B3B143B0803193E
:100738009E2B9F2BAE2B3B0A031DA32BA42BAC2B6C
:100748000030B0000030AF000030AE000030AD0027
:10075800AF17B62B0030B0000030AF000030AE004D
:100768000030AD003B080319BA2BBB2BC02B3C084B
:10077800031DBF2BC02BC92B0030AC000030AB00D1
:100788000030AA000030A900A12D2908A0002F08D8
:100798009331E623833120002108C2002008C100DC
:1007A8004108B100B201B301B4013408BA003308FA
:1007B800B9003208B8003108B7004208B100B201E8
:1007C800B301B4013408C0003308BF003208BE00CA
:1007D8003108BD002A08A0002E089331E623833192
:1007E80020002108C2002008C1004108B100B20160
:1007F800B301B4013108B7073208B83D3308B93D31
:100808003408BA3D4208B100B201B301B40131085D
:10081800BD073208BE3D3308BF3D3408C03D2B0834
:10082800A0002D089331E623833120002108C2005F
:100838002008C1004108B100B201B301B401310878
:10084800B7073208B83D3308B93D3408BA3D420805
:10085800B100B201B301B4013108BD073208BE3D91
:100868003308BF3D3408C03D0830B735B80DB90D61
:10087800BA0D890B392C2A08A0002D089331E623DC
:10088800833120002108C2002008C1004108B707B1
:100898004208B83D0030B93DBA3D2908A0002E08ED
:1008A8009331E623833120002108C2002008C100CB
:1008B8004108B7074208B83D0030B93DBA3D083095
:1008C800B735B80DB90DBA0D890B642C2908A000ED
:1008D8002D089331E623833120002108C200200827
:1008E800C1004108B7074208B83D0030B93DBA3DDC
:1008F8002A08A0002F089331E6238331200021081D
:10090800C2002008C1004108BD074208BE3D0030B2
:10091800BF3DC03D2B08A0002E089331E62383314C
:1009280020002108C2002008C1004108BD07420874
:10093800BE3D0030BF3DC03D2B08A0002F089331BD
:10094800E623833120002108C2002008C1004108A5
:10095800B1004208B200B301B4010830B135B20D9C
:10096800B30DB40D890BB22C3108BD073208BE3D5A
:100978003308BF3D3408C03D3708B1003808B2001D
:100988003908B3003A08B4001830B436B30CB20CC6
:10099800B10C890BC92C3108BD073208BE3D33089C
:1009A800BF3D3408C03D0830B735B80DB90DBA0D94
:1009B800890BD82C3C083B07B100B201B20D3108B5
:1009C800823EC100FF30323DC200012D0130BD35ED
:1009D800BE0DBF0DC00D890BEB2CBA1FF42CF52CE6
:1009E800F62C3D140130B735B80DB90DBA0D890B89
:1009F800F72CFF30C107FF30C23DBF1F042D052D66
:100A0800EA2CBB01BA1F092D0A2D262DFF30370508
:100A1800B100FF303805B200FF303905B3007F3030
:100A28003A05B400340833043204310403191D2D87
:100A38001E2D212DBB01BB0A262D3D1C242D252D45
:100A4800262D1E2D3B0803192A2D2B2D532D013041
:100A5800BD070030BE3D0030BF3D0030C03D401CEA
:100A6800362D372D532D3D08B1003E08B2003F0802
:100A7800B3004008B4000130B500B437B30CB20C71
:100A8800B10CB50B412D3408C0003308BF00320843
:100A9800BE003108BD000130C1070030C23D420828
:100AA800803AB10080303102031D5C2DFF304102D5
:100AB800031C5F2D602D6A2D7F302000C000803020
:100AC800BF000030BE000030BD00952D2000420858
:100AD800803AB10080303102031D742D013041028B
:100AE8000318772D782D832D00302000C0000030AA
:100AF800BF000030BE000030BD00B601952D2000BB
:100B08004108BC00FF30BD05FF30BE057F30BF0582
:100B18000030C0053C1C912D922D932DBF173C36FB
:100B2800C0003608B1003108C0044008AC003F08D6
:100B3800AB003E08AA003D08A900080020002708CD
:100B48008039B1002735B800A61FAB2DAC2DAD2DCF
:100B5800381438080319B12DB22DC22D380A031DD7
:100B6800B62DB72DBF2D0030A7000030A6000030ED
:100B7800A5000030A400A617A701CA2D0030A700C1
:100B88000030A6000030A5000030A40023088039FA
:100B9800A8002808B1062335B900A21FD42DD52DE9
:100BA800D62D391439080319DA2DDB2DEB2D390A26
:100BB800031DDF2DE02DE82D0030A3000030A2003A
:100BC8000030A1000030A000A217A301F32D0030CF
:100BD800A3000030A2000030A1000030A0002308CC
:100BE800220421042004031DFA2DFB2D142E0030AD
:100BF800A7000030A6000030A5000030A400803017
:100C0800A6047F30A7043108A8002808A7042708ED
:100C1800A3002608A2002508A1002408A0004B2F45
:100C28003808031D182E192E222E0030A30000307C
:100C3800A2000030A1000030A0004B2F3808A80007
:100C4800A9012908AB0039082802AA00031CAB0334
:100C58002A087F3EB20000302B3DB3002708B000C1
:100C68002608AF002508AE002408AD000030A70014
:100C78000030A6000030A5000030A4000030B70006
:100C88000030B6000030B5000030B400B9018A2E3B
:100C980039080319502E512E6B2E0130AD35AE0D8B
:100CA800AF0DB00D890B522E0130A435A50DA60D40
:100CB800A70D890B592EB71F622E632E642E24149C
:100CC8000130B435B50DB60DB70D890B652E230867
:100CD8003002031D792E22082F02031D792E2108C8
:100CE8002E02031D792E20082D02031C7C2E7D2E3A
:100CF800862E37172008AD022108AE3B2208AF3BED
:100D08002308B03B0130A8002808B9071A30390277
:100D1800031C8F2E902E4C2E30082F042E042D04E9
:100D28000319972E982EB12E3414B12E0130A43504
:100D3800A50DA60DA70D890B9B2EB71FA42EA52EBA
:100D4800A62E24140130B435B50DB60DB70D890B98
:100D5800A72EFF30B207FF30B33DA61FB42EB52E25
:100D68009A2EB901B71FB92EBA2ED62EFF303405E8
:100D7800A800FF303505A900FF303605AA007F30EE
:100D88003705AB002B082A04290428040319CD2EA3
:100D9800CE2ED12EB901B90AD62E241CD42ED52E8A
:100DA800D62ECE2E39080319DA2EDB2E032F01306A
:100DB800A4070030A53D0030A63D0030A73D271C04
:100DC800E62EE72E032F2408A8002508A9002608E8
:100DD800AA002708AB000130AC00AB37AA0CA90C5D
:100DE800A80CAC0BF12E2B08A7002A08A60029088E
:100DF800A5002808A4000130B2070030B33D33082D
:100E0800803AA80080302802031D0C2FFF303202E0
:100E1800031C0F2F102F1D2FFF302000B2000030B1
:100E2800B3000030A7000030A6000030A500003055
:100E3800A40020003308803AA80080302802031D4F
:100E4800272F0130320203182A2F2B2F372F20008B
:100E5800B201B3010030A7000030A6000030A500A1
:100E68000030A400B10120003208B800381C3D2F22
:100E78003E2F402FA617442F7F30A8002808A6052C
:100E88003836A7003108A8002808A7040B2E080048
:100E98002000A80028080319522F532F672FA31FDB
:100EA800562F572F672F2009AA002109AB002209C6
:100EB800AC002309AD00AA0A0319AB0A0319AC0A4E
:100EC8000319AD0A6F2F2308AD002208AC002108D2
:100ED800AB002008AA002308220421042004031DD3
:100EE800762F772F802F0030A3000030A20000302B
:100EF800A1000030A000F62F9630A9008E2F0130F7
:100F0800A4002408A9070130AD36AC0CAB0CAA0C20
:100F1800890B882FFE302D05031D932F942F832FC7
:100F2800A82F0130A4002408A9070130AA0700301F
:100F3800AB3D0030AC3D0030AD3D0130AD36AC0CC2
:100F4800AB0CAA0C890BA22FFF302D05031DAD2F6A
:100F5800AE2F952FB82F0130A9020130AA35AB0D5D
:100F6800AC0DAD0D890BB22FAC1BBB2FBC2FC22F04
:100F7800023029020318C12FC22FAF2F2918C52FFD
:100F8800C62FCE2FFF30AA05FF30AB057F30AC054A
:100F9800FF30AD050310A90C2908A400A501A6017E
:100FA800A7011830A435A50DA60DA70D890BD62FBE
:100FB8002408AA042508AB042608AC042708AD04B5
:100FC80028080319E82FE92FEE2FA31FEC2FED2F88
:100FD800EE2FAD172D08A3002C08A2002B08A100A6
:100FE8002A08A0000800640080010131890BF82F4D
:040FF800003401348C
:101008007F302000A700FF30A600FF30A500FF308A
:10101800A4002708A3002608A2002508A100240888
:10102800A00008002000E90069088600870101087F
:1010380003191F2820288328690886008701810151
:101048002D30B2009830B3006108063E9531122564
:1010580088312000E701E8012D302000B2009830E7
:10106800B300003095311225883101302000E707A0
:101078000030E83D6808803AE20080306202031DD3
:10108800472806306702031C4A284B2830282D3091
:101098002000B2009830B300003095311225883115
:1010A80093310E23883120005E08E6005D08E500D4
:1010B8005C08E4005B08E3006608A3006508A2007A
:1010C8006408A1006308A0000030A7000030A60053
:1010D8000030A5000030A4009531D12588310318CF
:1010E800762877288328200060088600870163080F
:1010F800C03F6408C13F6508C23F6608C33F080097
:101108002000DA00430803198A288B289528430809
:10111800860087015A08810095280130C7004708D2
:10112800DA075A08860001308700203001060319C3
:101138009E28A0280130A1280030C700C801470810
:10114800D3004808D40053085404031DAC28AD2824
:1011580091285A088600013087000108C700C80195
:101168004708D3004808D4005308F73EC900FF30A9
:10117800543DCA0000304A02053003194902031CD5
:10118800C628C7289128D0012D3053065404031DC2
:10119800CE28CF28D628D001D00A0130C70047086A
:1011A800DA07DE282B3053065404031DDC28DD281B
:1011B800DE28D128D901E4280130C7004708D9071B
:1011C80059085A07C70047088600013087000108F8
:1011D8000319EF28F0281C295908183E8400983074
:1011E8000318013E85000008C70059085A07C800BF
:1011F80048088600013087000108470603190529B9
:101208000629E02859080F3E840098300318013E4B
:1012180085000008C70059085A07C8004808860012
:10122800013087000108470603191B291C29E028FB
:1012380003305902031C212922293E297F30D80076
:101248008030D7000030D6000030D500430803199D
:101258002E292F29DE2F083059060319342935295C
:1012680037290330D9004308860087015A085907EF
:101278008100DE2FD90144290130C7004708D9076A
:1012880059085A07C7004708860001308700010837
:1012980003194F2950297C295908293E8400983080
:1012A8000318013E85000008C70059085A07C800FE
:1012B8004808860001308700010847060319652998
:1012C800662940295908213E840098300318013EB8
:1012D80085000008C70059085A07C8004808860052
:1012E800013087000108470603197B297C2940291A
:1012F80003305906031D81298229DC290E30A000FC
:101308009830A10088310420883120002308D800B3
:101318002208D7002108D6002008D5004308031961
:1013280096299729DE2F5908C7004708DA075A086F
:1013380086000130870028300106031DA429A5294D
:10134800D629D901AB290130C7004708D907590860
:101358005A07C700470886000130870001080319AB
:10136800B629B729C42959085A07C700470886006B
:101378000130870029300106031DC329C429A72984
:1013880059085A07C70047088600013087002930E6
:101398000106031DD029D129D6295908013EC700C5
:1013A8004708DA074308860087015A088100DE2FBC
:1013B800D301D4010030D8000030D7000030D60067
:1013C8000030D500D101D201D901EE290130C70082
:1013D8004708D90759085A07C70047088600013047
:1013E8008700303001060319FA29FB29EA29590830
:1013F8000319FF29002A392D59085A07C700470839
:101408008600013087007830010603190C2A0D2A5E
:101418001A2A59085A07C70047088600013087006A
:1014280058300106031D192A1A2A392D5908013E78
:10143800C7004708DA07D901252A0130C70047083D
:10144800D90759085A07C70047088600013087009E
:10145800303001060319312A322A212AD9015908C4
:101468005A07C70047088600013087007030010618
:1014780003193F2A402AAA2B59085A07C7004708C8
:1014880086000130870050300106031D4C2A4D2A82
:101498004E2AAA2B59085A07C70047088600013068
:1014A80087002E300106031D5A2A5B2A612A50162E
:1014B8000130C7004708D907AA2B59085A07C7009F
:1014C80047088600013087000108C800C90148089C
:1014D800A6004908A70094310A248831200026086C
:1014E80027040319782A792AE72ACF0159085A07C5
:1014F800C70047088600013087000108D03EC800B1
:10150800FF3003180030C900003049020A300319BF
:1015180048020318902A912A9C2A59085A07C7009A
:1015280047088600013087000108D03ECF00B12A65
:1015380059085A07C7004708860001308700010884
:10154800C800C9014808A6004908A70093311F230D
:10155800883120002608C93ECF005408803AC700C9
:1015680080304702031DBA2A083053020318BD2AE7
:10157800BE2ADD2A20004F08C700C801C901CA01D8
:101588005308073CCB000130CB35FF3E031DC82A6A
:101598004B35890AD32AC735C80DC90DCA0D890B21
:1015A800CF2A4708D5044808D6044908D7044A086A
:1015B800D80401302000D3070030D43D0430D107CF
:1015C8000030D23DF02A0030C6000030C50000309F
:1015D800C4000030C300FF2F0130C7004708D907F7
:1015E800332A59085A07C700470886000130870080
:1015F800703001060319012B022BAE2B59085A072C
:10160800C700470886000130870050300106031DD7
:101618000E2B0F2B102BAE2B59085A07C700470863
:1016280086000130870030300106031D1C2B1D2B5E
:10163800282B53085404031D222B232B282BFC3062
:10164800D107FF30D23D5C2A59085A07C70047081E
:101658008600013087000108C800C9014808A600B3
:101668004908A70094310A24883120002608270455
:1016780003193F2B402B5C2ACF0159085A07C70092
:1016880047088600013087000108D03EC800FF30B7
:1016980003180030C900003049020A300319480213
:1016A8000318572B582B632B59085A07C7004708AC
:1016B8008600013087000108D03ECF00782B5908FA
:1016C8005A07C70047088600013087000108C8008C
:1016D800C9014808A6004908A70093311F2388318B
:1016E80020002608C93ECF005408803AC700803041
:1016F8004702031D812B083053020318842B852BC6
:10170800A42B20004F08C700C801C901CA0153080B
:10171800073CCB000130CB35FF3E031D8F2B4B35EB
:10172800890A9A2BC735C80DC90DCA0D890B962B86
:101738004708D5044808D6044908D7044A08D804F5
:1017480001302000D3070030D43D5C2A501AAD2B5D
:10175800AE2BF52A59085A07C700470886000130FA
:101768008700703001060319BA2BBB2BD12B5908FF
:101778005A07C70047088600013087005030010625
:101788000319C72BC82BD12B0030C6000030C50069
:101798000030C4000030C300FF2F0130C7004708E5
:1017A800D90759085A07C70047088600013087003B
:1017B8002B300106031DE12BE22BE72B0130C7007C
:1017C8004708D907F62B59085A07C7004708860063
:1017D800013087002D300106031DF32BF42BF62B67
:1017E800D015E22B5908C7004708DA07D901002CA1
:1017F8000130C7004708D90759085A07C7004708E2
:101808008600013087003030010603190C2C0D2C9E
:10181800FC2BD301D4013B2C59080319142C152C8B
:10182800252C0A30A0000030A1005408A30053085A
:10183800A2009331A423883120002108D400200875
:10184800D30059085A07C7004708860001308700A7
:101858000108D03EC800FF3003180030C90048080E
:10186800D3074908D43D0130C7004708D9075908AC
:101878005A07C70047088600013087000108D03E94
:10188800C800FF3003180030C900003049020A3090
:1018980003194802031C512C522C102C5908031D03
:1018A800562C572C602C0030C6000030C500003084
:1018B800C4000030C300FF2FD01D632C642C692C9A
:1018C800D309D409D30A0319D40A5308D1075408F1
:1018D800D23D43080319712C722C782C43088600DA
:1018E80087015A08590781005808570456045504B7
:1018F800031D7F2C802C892C0030C6000030C500C9
:101908000030C4000030C300FF2FFF305505C7006A
:1019180000305605C80000305705C900003058058A
:10192800CA004A08031DA42C4908031DA42C480812
:10193800031DA42C81304702031CA32CA42CB92C12
:1019480000302000D5070130D63D0030D73D0030AB
:10195800D83DB92C0130D535D60DD70DD80D890B0A
:10196800AF2CFF30D107FF30D23D2000D81FBD2C4F
:10197800BE2CAE2C5208803AC7007F304702031DA8
:10198800C72C833051020318CA2CCB2CD82C813099
:101998002000D100FF30D2000030D8000030D7003E
:1019A8000030D6000030D500813020005106031DDC
:1019B800E22C520A0319E12CE22CED2C0130D5352A
:1019C800D60DD70DD80D890BE32CFF30D107FF308A
:1019D800D23D5208803AC70080304702031DF62CDA
:1019E80080305102031CF92CFA2C072D00302000FE
:1019F800D8000030D7000030D6000030D500803045
:101A0800D1000030D20009302000D836D70CD60CCF
:101A1800D50C890B082DFF30D505FF30D6057F3052
:101A2800D7050030D80551087F3EC7000030523D29
:101A3800C800FF304705C90000304805CA004908FA
:101A4800CB004A08CC00CD01CE011730CB35CC0DE8
:101A5800CD0DCE0D890B2A2D4B08D5044C08D60484
:101A68004D08D7044E08D804DE2F501A3C2D3D2DC2
:101A78004D2D5A088600013087002E300106031DBF
:101A8800462D472D4D2D50160130C7004708DA075F
:101A9800392D5A088600013087000108D03EC7005A
:101AA800FF3003180030C800003048020A3003191C
:101AB8004702031C602D612D622DAE2DD014093014
:101AC800530654040319692D6A2DA52D501E6D2D3A
:101AD8006E2D722DFF30D107FF30D23D0130D30774
:101AE8000030D43D0030A3000030A2000030A10037
:101AF8000A30A0005808A7005708A6005608A500F5
:101B08005508A40094316E24883120002308D80099
:101B18002208D7002108D6002008D5005A088600D8
:101B2800013087000108D03EC700C801C901CA01B9
:101B38004708D5074808D63D4908D73D4A08D83D43
:101B4800482D501AA82DA92D482D0130D107003055
:101B5800D23D482DD301D4015A08860001308700B0
:101B6800653001060319B92DBA2DC42D5A0886000F
:101B78000130870045300106031DC32DC42D7A2E80
:101B88000130C7004708DA075A0886000130870085
:101B98002D300106031DD12DD22DD82DD0150130A1
:101BA800C7004708DA07E32D5A0886000130870086
:101BB8002B300106031DE12DE22DE32DD32D5A080C
:101BC800860001308700303001060319EC2DED2D19
:101BD800D32D5A088600013087000108D03EC7007F
:101BE800FF3003180030C800003048020A300319DB
:101BF80047020318002E012E712E5A088600013064
:101C080087000108D03EC700C8014708D30048082C
:101C1800D4000130C7004708DA075A0886000130A7
:101C280087000108D03EC700FF3003180030C80005
:101C3800003048020A30031947020318242E252EC3
:101C4800712E5A088600013087000108D03EC7006F
:101C5800C8015408A1005308A0000A30A2000030AF
:101C6800A3009331A4238831200047082007D3001C
:101C78004808213DD4000130C7004708DA075A0850
:101C88008600013087000108D03EC700FF300318E6
:101C98000030C800003048020A3003194702031810
:101CA800562E572E712E5A088600013087000108DB
:101CB800D03EC700C8015408A1005308A0000A304C
:101CC800A2000030A3009331A423883120004708E4
:101CD8002007D3004808213DD400D01D742E752E4E
:101CE8007A2ED309D409D30A0319D40A5308D10781
:101CF8005408D23D43080319822E832E8C2ED01C03
:101D0800862E872E8C2E4308860087015A0881006C
:101D18005808A3005708A2005608A1005508A000BB
:101D2800003087314C27883120002308D80022084A
:101D3800D7002108D6002008D5005808A300570866
:101D4800A2005608A1005508A0000030A7000030E6
:101D5800A6000030A5000030A4009531D1258831B7
:101D6800031CB72EB82EC22E00302000C60000304B
:101D7800C5000030C4000030C300FF2F2000D21F70
:101D8800C62EC72E512FD109D209D10A0319D20A5A
:101D9800EE2E50302000A3001530A2000230A10022
:101DA800F930A0005808A7005708A6005608A50053
:101DB8005508A4008531A225883120002308D800C1
:101DC8002208D7002108D6002008D500F630D10710
:101DD800FF30D23D5208803AC70080304702031DC9
:101DE800F72E0A3051020318FA2EFB2ECD2E1C2F87
:101DF8004130A3002030A2000030A1000030A00034
:101E08005808A7005708A6005608A5005508A400BA
:101E18008531A225883120002308D8002208D70060
:101E28002108D6002008D500FF30D107FF30D23D69
:101E3800200051085204031D222F232FFC2E58087E
:101E4800A3005708A2005608A1005508A0000030BA
:101E5800A7008030A6000030A5000030A40096310D
:101E6800E52688310318392F3A2FDE2F2000501C21
:101E78003E2F3F2F482F8030C6008030C5000030ED
:101E8800C4000030C300FF2F0030C6008030C500FA
:101E98000030C4000030C300FF2F5208803AC7004A
:101EA80080304702031D5A2F01305102031C5D2F59
:101EB8005E2FDE2F7F2F5030AC001530AB00023084
:101EC800AA00F930A9005808B0005708AF00560812
:101ED800AE005508AD0083316723883120002C08F7
:101EE800D8002B08D7002A08D6002908D500F630D4
:101EF800D107FF30D23D0030200052020A300319CA
:101F080051020318882F892F5F2FAA2F4130AC0068
:101F18002030AB000030AA000030A9005808B000FB
:101F28005708AF005608AE005508AD008331672347
:101F3800883120002C08D8002B08D7002A08D600A2
:101F48002908D500FF30D107FF30D23D510852048F
:101F5800031DAF2FB02F8A2F7F30A3007F30A20040
:101F6800FF30A100FF30A0005808A7005708A600BE
:101F78005608A5005508A4009631E52688310318AF
:101F8800C62FC72FDE2F2000501CCB2FCC2FD52FCC
:101F98008030C6008030C5000030C4000030C30067
:101FA800FF2F0030C6008030C5000030C40000306C
:101FB800C300FF2F2000501CE22FE32FF72F5808F3
:101FC800A3005708A2005608A1005508A0009231A6
:101FD800F322883120002308D8002208D7002108DE
:101FE800D6002008D5005808C6005708C50056086E
:081FF800C4005508C3000800F5
:1025D00020002C082A07AE002D082B3DAF00AF3697
:1025E000AE0C2E0808002000230822042104200439
:1025F0000319FB2AFC2AFE2A8030A30608003A3081
:102600002000A0000030A1002908A3002808A20093
:1026100095314E2592312000200808002000DF006F
:10262000C3015F0888318420933120004608DE0012
:102630004508DD004408DC004308DB0008002000FA
:1026400026089F3EA800FF30273DA9000030290240
:102650001A300319280203182E2B2F2B362B5F302C
:102660002605A60000302705A700362B080020000D
:102670002008D03EA200FF30213DA30000302302FD
:102680000A3003192202031C462B482B0130492B28
:102690000030A400A5012408A0002508A10008001E
:1026A000200020089F3EA200FF30213DA300003003
:1026B00023021A3003192202031C5F2B612B013005
:1026C000622B0030A400A5012408A0002508A10069
:1026D00008002000B1002F08A8002E08A70031082C
:1026E0009431A224933120002708B0003008B107AC
:1026F00031088600013087000108031D802B812BE3
:10270000832B0030842B310808002000200884002F
:102710002108850000082206031D8F2B902B912B8A
:10272000A32B2108A5002008A400A00A0319A10AD0
:1027300024088400250885001200031DA02BA12B6E
:10274000852BA001A10108002000A401A501201CE7
:10275000AA2BAB2BAF2B2208A4072308A53D0130E1
:10276000A235A30D890BB02B0130A136A00C890B2B
:10277000B52B20082104031DBE2BBF2BA72B25083A
:10278000A1002408A00008002000A401A40A203011
:10279000200621040319CD2BCE2BDE2B2008F73E7B
:1027A000A200FF30213DA3000030230205300319B1
:1027B0002202031CDC2BDD2BDE2BA4012408A2004B
:1027C000A3012208A0002308A10008002000A800FF
:1027D000A401A5012008A200A3012208A600230845
:1027E000A700281CF42BF52BF92B2608A407270893
:1027F000A53D0130A635A70D890BFA2B0310A80CB7
:102800002808031D042C052CF12B2508A100240801
:10281000A00008002000AC01AC0A2608D03EA800A9
:10282000FF30273DA900003029020A300319280291
:10283000031C1B2C1C2C322C20302604A80000303A
:102840002704A90028089F3EAA00FF30293DAB00BD
:1028500000302B02063003192A02031C302C312CC5
:10286000322CAC012C08A800A9012808A6002908D0
:10287000A70008002000A401A501A401A501542C73
:1028800023009E1C442C452C402C200020082407AB
:1028900084002108253D8500000823009A000130AE
:1028A0002000A4070030A53D2508803AA300803011
:1028B0002302031D5D2C220824020318602C612CC6
:1028C0006D2C20002008240784002108253D850068
:1028D0001200031D6C2C6D2C402C080000302000D1
:1028E000AB000030AA000030A9000030A800201C76
:1028F0007A2C7B2C832C2408A8072508A93D2608C0
:10290000AA3D2708AB3D0130A435A50DA60DA70DA6
:10291000890B842C0130A336A20CA10CA00C890BCE
:102920008B2C2308220421042004031D982C992CAD
:10293000772C2B08A3002A08A2002908A100280848
:10294000A00008002000AD00AB01AC01AF2C0130AD
:10295000A9002908AD070130AB070030AC3D2D08B8
:1029600086000130870001080319B72CB82CD12C40
:102970002808A1002708A0002D0886000130870044
:102980000108A900AA012908A2002A08A30093317E
:10299000852394312000200821040319D02CD12C48
:1029A000A72C2C08A8002B08A700080020008E14D4
:1029B000FF308C0041302000A000EE30890BDE2C6F
:1029C000A00BDE2C00002000A101A20120000C358C
:1029D0008C0003108E1C03140318EF2CF22C200023
:1029E0008E14F42C20008E1041302000A000EE3018
:1029F000890BF82CA00BF82C000001302000A10757
:102A00000030A23D2208803AA00080302002031D41
:102A10000B2D08302102031C0E2D0F2DE62C20005B
:102A20008E1008002000B700B50137080319192DD2
:102A30001A2D1C2D3708EC006C08031D202D212DAC
:102A4000232D00304D2D3308AF003208AE006C0846
:102A50009331692395312000B60036080319312DD2
:102A6000322D402D360886000130870081016C0828
:102A7000B5000130B4003408B6073608EC004C2D20
:102A80006C0886000130870001080319482D492D84
:102A90004C2D6C08B500EC01350808002000A5019C
:102AA000A601200821040319562D572D862DA701B4
:102AB000A70A632D0130A035A10D890B5B2D0130D4
:102AC000A4002408A707A11F662D672D5A2D0130E9
:102AD000A535A60D890B682D21082302031D722D33
:102AE00020082202031C752D762D7B2D2008A202C2
:102AF0002108A33B25140130A136A00C890B7C2DA5
:102B00000130A702031D852D862D672D2608A10003
:102B10002508A0000800F20023009D1C902D912D97
:102B2000962D19081D121D160030D02D1908F3001E
:102B30007B08803AF10080307102031DA12D7008DE
:102B40007A020318A42DA52DCF2D73080319A92DE2
:102B5000AA2DB62D0A3073060319AF2DB02DB62D50
:102B60000D307306031DB52DB62DC22D7A087207E0
:102B7000F100710A8600013087008101FA01FB0132
:102B80000130D02D7A087207F100710886000130FB
:102B90008700730881000130FA070030FB3D0030E8
:102BA0000800003020002005A80000302105A90001
:102BB00080302205AA007F302305AB002B082A04B1
:102BC00029042804031DE52DE62DEE2D0030A30079
:102BD0000030A2000030A1000030A0000030240529
:102BE000A80000302505A90080302605AA007F3006
:102BF0002705AB002B082A0429042804031D012EF5
:102C0000022E0A2E0030A7000030A6000030A500DA
:102C10000030A40027082306031D182E26082206CC
:102C2000031D182E25082106031D182E2408200632
:102C300003191B2E1C2E1E2E03101F2E031408001A
:102C400020003F084302CF004008443BD000410829
:102C5000453BD1004208463BD2005208AF00510824
:102C6000AE005008AD004F08AC003F083B02D30057
:102C700040083C3BD40041083D3BD50042083E3B68
:102C8000D6005608A3005508A2005408A100530816
:102C9000A00047084B02D70048084C3BD800490821
:102CA0004D3BD9004A084E3BDA005A08A7005908A4
:102CB000A6005808A5005708A40094316E24963148
:102CC00020002308B3002208B2002108B100200828
:102CD000B00097317027963120002C084707DB00A1
:102CE0002D08483DDC002E08493DDD002F084A3DF7
:102CF000DE005E08BE005D08BD005C08BC005B082D
:102D0000BB00080020003F08031D872E882EB12E2F
:102D10003B08C0003C08C1003D08C2003E08C3009B
:102D20000630C035C10DC20DC30D890B912E43086D
:102D3000AF004208AE004108AD004008AC000030D2
:102D4000B3003D30B2000930B1000030B00097311F
:102D50007027963120002C08FF3E23009B001E1197
:102D6000D92E3B08C0003C08C1003D08C2003E0807
:102D7000C3000430C035C10DC20DC30D890BBA2E7E
:102D80004308AF004208AE004108AD004008AC0067
:102D90000030B3003D30B2000930B1000030B00067
:102DA00097317027963120002C08FF3E23009B00AE
:102DB0001E151E139E161E129D171D131D161D1186
:102DC0009D1021008E170E130800003020002005F2
:102DD000A80000302105A90080302205AA007F301C
:102DE0002305AB002B082A0429042804031DF92E0F
:102DF000FA2E022F0030A3000030A2000030A10004
:102E00000030A00000302405A80000302505A900EE
:102E100080302605AA007F302705AB002B082A0446
:102E200029042804031D152F162F1E2F0030A7007C
:102E30000030A6000030A5000030A400A31F212F01
:102E4000222F3A2F0030A8000030A9000030AA003D
:102E50008030AB002008A8022108A93B2208AA3B29
:102E60002308AB3B2B08A3002A08A2002908A100D5
:102E70002808A000A71F3D2F3E2F562F0030A80086
:102E80000030A9000030AA008030AB002408A8025E
:102E90002508A93B2608AA3B2708AB3B2B08A7001F
:102EA0002A08A6002908A5002808A4008030A30647
:102EB0008030A70627082302031D682F2608220258
:102EC000031D682F25082102031D682F24082002F6
:102ED00003186B2F6C2F6E2F03106F2F0314080035
:102EE0002000B601AF1F752F762F832FAC09AD09D7
:102EF000AE09AF09AC0A0319AD0A0319AE0A0319EA
:102F0000AF0AB601B60AB31F862F872F962FB009D6
:102F1000B109B209B309B00A0319B10A0319B20A17
:102F20000319B30A0130B4003408B6060030BA0001
:102F30000030B9000030B8000030B7002F082E0470
:102F40002D042C040319A52FA62FE72FB501B50AD0
:102F5000B42F0130AC35AD0DAE0DAF0D890BAA2FDE
:102F60000130B4003408B507AF1FB72FB82FA92F11
:102F70000130B735B80DB90DBA0D890BB92F2F082F
:102F80003302031DCD2F2E083202031DCD2F2D0835
:102F90003102031DCD2F2C083002031CD02FD12F5E
:102FA000DA2F2C08B0022D08B13B2E08B23B2F08B7
:102FB000B33B37140130AF36AE0CAD0CAC0C890B03
:102FC000DB2F0130B502031DE62FE72FB82F36089F
:102FD0000319EB2FEC2FF72FB709B809B909BA0974
:102FE000B70A0319B80A0319B90A0319BA0A3A0841
:102FF000AF003908AE003808AD003708AC00080053
:10300000503449344334203449344E3449345434F0
:1030100020344F344B3421340A340D3400344934D5
:103020004E34463449344E344934543459340034DF
:1030300069346E34663469346E3469347434793486
:1030400000344E3441344E34003469346E346634C6
:0E30500000346E3461346E3400342C3400349D
:020000040001F9
:08000000FF3FFF3FFF3FFF3F00
:04000E00C43FFF3FAD
:00000001FF
