:040000008031AA2879
:100008007E1480310B1D09280A2825282000150890
:10001800163E95007D080319122813281C289701FD
:1000280096010E140330890B1728000020000E10CB
:100038007D08031920282228013023280030FD00DC
:100048000B110B1C282829287928F801F901270009
:100058001608F400780A3128F436890B3028741809
:100068003628372840287835203E86008701403FCB
:10007800F600413FF7004B2820001608293EF400FF
:10008800FE30173DF5007408F6007508F70078355E
:10009800203E860087017608C03F7708C13F0030C0
:1000A800F400780A5828F435890B57280130F500F0
:1000B800780A5F28F535890B5E287508FF3A27000E
:1000C8001605740496000130F8070030F93D7908E8
:1000D800803AF40080307402031D742808307802D6
:1000E800031C772878282B280B102000911E7D28C8
:1000F8007E2885283230F000A030823127228031D6
:10010800FC002000911C89288A28A8280130B807FB
:100118000030B93D0030BA3D0030BB3D7B080319C3
:1001280096289728A7280C170130BE070030BF3D36
:1001380005303E063F04031DA228A328A7280C1358
:10014800FB01BE01BF0191107E1009008031AC286F
:100158008231DE228031FD00FA01FB01FC012030F2
:1001680084000030850020308231CA228031A030DE
:1001780084000030850032308231CA2280317E10FE
:100188002000813157292000CA01C31FCC28CD285F
:10019800DA28C009C109C209C309C00A0319C10A7A
:1001A8000319C20A0319C30ACA01CA0AC71FDD28EC
:1001B800DE28ED28C409C509C609C709C40A0319F8
:1001C800C50A0319C60A0319C70A0130C800480836
:1001D800CA060030CE000030CD000030CC00003020
:1001E800CB0043084204410440040319FC28FD28BD
:1001F8003E29C901C90A0B290130C035C10DC20DFC
:10020800C30D890B01290130C8004808C907C31F5D
:100218000E290F2900290130CB35CC0DCD0DCE0D7F
:10022800890B102943084702031D24294208460266
:10023800031D242941084502031D242940084402BE
:10024800031C2729282931294008C4024108C53B35
:100258004208C63B4308C73B4B140130C336C20CA7
:10026800C10CC00C890B32290130C902031D3D297C
:100278003E290F294A080319422943294E29CB0947
:10028800CC09CD09CE09CB0A0319CC0A0319CD0A2A
:100298000319CE0A4E08C3004D08C2004C08C1001D
:1002A8004B08C00008006A30210099008C01FF301B
:1002B8008D008E0123008C018D018E0120008C01A0
:1002C8008D018E01E8308B00223021009100013031
:1002D80027009500C63021009500013020009800C5
:1002E800E13099003C309C007D309B000030D2000A
:1002F8000030D1002530D0008030CF00D301D30AA0
:100308008131C4218131A2302000C0008230C10077
:100318001830C20082316E22813120003408380240
:10032800D8003508393BD90036083A3BDA00370897
:100338003B3BDB005B08031DAC295A08031DAC29B5
:10034800843058020330593B031CAB29AC2991294E
:1003580020000C170D302000D800FB30890BB22983
:10036800D80BB229003220000C133B08B7003A081A
:10037800B6003908B5003808B40091298031AA2898
:1003880020005308031DC929CA29F3294F08D4009E
:100398005008D5005108D6005208D7000630D43589
:1003A800D50DD60DD70D890BD3295708C30056088C
:1003B800C2005508C1005408C0000030C7003D30D5
:1003C800C6000930C5000030C4008031C720813123
:1003D80020004008FF3E23009B001E111B2A4F08E7
:1003E800D4005008D5005108D6005208D700043070
:1003F800D435D50DD60DD70D890BFC295708C30068
:100408005608C2005508C1005408C0000030C70093
:100418003D30C6000930C5000030C4008031C72017
:10042800813120004008FF3E23009B001E151E134B
:100438009E161E129D171D131D161D119D102100BD
:100448008E170E130800F20023009D1C2C2A2D2A5B
:10045800322A19081D121D1600306D2A1908F300DA
:1004680020003D08803AF10080307102031D3E2AC9
:1004780070083C020318412A422A6C2A730803199F
:10048800462A472A532A0A30730603194C2A4D2A4A
:10049800532A0D307306031D522A532A5F2A20005F
:1004A8003C087207F100710A860087018101BC01CE
:1004B800BD0101306D2A20003C087207F100710867
:1004C80086008701730881000130BC070030BD3DFC
:1004D800003008002000C401C501C401C501882AF4
:1004E80023009E1C782A792A742A20004008440791
:1004F80084004108453D8500000823009A0001302A
:100508002000C4070030C53D4508803AC30080304C
:100518004302031D912A420844020318942A952A8B
:10052800A12A20004008440784004108453D850071
:100538001200031DA02AA12A742A08005034493445
:100548004334203449344E344934543420344F34FD
:100558004B3421340A340D34003449344E34463493
:1005680049344E34493454345934003469346E347F
:10057800663469346E34693474347934003424341C
:1005880047345034563454344734003464008001BE
:100598000131890BCB2A00344E3441344E340034B7
:1005A80069346E34663400346E3461346E34003429
:0605B8002C340034013474
:020000040001F9
:08000000FF3FFF3FFF3FFF3F00
:04000E00C43FFF3FAD
:00000001FF
